:03000000020003F8
:0C000300787FE4F6D8FD75811D02004AEC
:1000E4000A0E3F065B4F666D7D077F6F0608FEFDB7
:0A00F400FBF7EFDF0418040500031A
:10008F00E4F51CF51DAF1D74082FF8E6F5907418F4
:10009F002FF8E6240EF8E6F5807F017E001200C4EB
:1000AF00051DE51D7002051CC39404E51C648094B6
:0500BF008040D280CB5F
:1000C400D3EF9400EE6480948040147D647C00ED52
:0F00D4001D70011CED4C70F7EF1F70E41E80E1F2
:0100E30022FA
:10000F0002008FE493A3F8E493A34003F68001F278
:10001F0008DFF48029E493A3F85407240CC8C333F2
:10002F00C4540F4420C8834004F456800146F6DFC1
:10003F00E4800B01020408102040809000E4E47E6D
:10004F00019360BCA3FF543F30E509541FFEE493B6
:10005F00A360010ECF54C025E060A840B8E493A37D
:10006F00FAE493A3F8E493A3C8C582C8CAC583CAA8
:10007F00F0A3C8C582C8CAC583CADFE9DEE780BE60
:0100FE000001
:00000001FF
