:0300000002016397
:0C016300787FE4F6D8FD75811F0201AA28
:100304000A0A3F065B4F666D7D077F6F0216FEFD8E
:0803140002140500021C0000A8
:10031D00D28875A8817508007509321201EF120097
:03032D00BD80F898
:1000060030A10C30A20930A30630A4030200BC7F45
:10001600017E001202E420A11EE51D451C7004B2FB
:10002600A0800DE51D451C70030200BCD2A6D2A01F
:10003600631DFF631CFF2230A00330A60620A00B21
:1000460030A60820A205B2A0B2A62230A00330A690
:100056000620A02C30A62920A326D3E5099460E526
:100066000864809480500B74032509F509E435086B
:10007600F508D3E5099460E5086480948002023EA1
:1000860030A00330A60620A02D30A62A20A427C320
:10009600E5099405E50864809480400C74FB250905
:1000A600F50974FF3508F508C3E5099405E5086404
:0700B6008094801202B422C5
:1000BD0030A04F20A64CC374649509F51BE4950838
:1000CD00F51AF518851B19C3E51864809480400D49
:1000DD001202E0E519151970EE151880EA75A0FFEA
:1000ED00851A18851B19D3E5199400E518648094B9
:1000FD0080400D1202E0E519151970EA151880E619
:10010D00C2A630A65020A04D850818850919C3E553
:10011D001864809480400D1202E0E519151970EEF7
:10012D00151880EAC374649509F51BE49508F51A52
:10013D0075A0FF851A18851B19D3E5199400E518CC
:10014D0064809480400D1202E0E519151970EA15CE
:06015D001880E6C2A0229A
:1001EF00751A00751B0AE4F518F519AF1974162F57
:1001FF00F8E6F59074142FF8E6240AF8E6F5807FF8
:10020F00327E001202E40519E51970020518C39435
:10021F0002E5186480948040D2E51B151B7002150F
:0F022F001AD3E51B9400E51A6480948050B8221E
:10023E00E514C39409501374032515F515D39409C9
:10024E00400874F62515F5150514E514C3940940F8
:10025E0019751409E51594094003751509E515C3BB
:0B026E009407500674032515F51522B7
:1002B400E515C39405400774FB2515F51522E515CE
:1002C400C394055016E515C39400400FE51470035C
:0C02D400F5142274052515F515151422EB
:0402E0007F027E001B
:1002E400D3EF9400EE6480948040147D0A7C00ED8A
:0F02F4001D70011CED4C70F7EF1F70E41E80E1D0
:0103030022D7
:030003000202797D
:10027900C0E0C0F0C083C082C0D075D000C000C04B
:1002890001C002C003C004C005C006C007120006B1
:10029900D007D006D005D004D003D002D001D000B9
:0B02A900D0D0D082D083D0F0D0E03263
:10016F0002031DE493A3F8E493A34003F68001F286
:10017F0008DFF48029E493A3F85407240CC8C33391
:10018F00C4540F4420C8834004F456800146F6DF60
:10019F00E4800B0102040810204080900304E47EE9
:1001AF00019360BCA3FF543F30E509541FFEE49355
:1001BF00A360010ECF54C025E060A840B8E493A31C
:1001CF00FAE493A3F8E493A3C8C582C8CAC583CA47
:1001DF00F0A3C8C582C8CAC583CADFE9DEE780BEFF
:01031C0000E0
:00000001FF
