:030000000200B645
:0C00B600787FE4F6D8FD75811F0200FD84
:1002EA000A0A3F065B4F666D7D077F6F0216FEFDA9
:0802FA0002140500021C0000C3
:1002CC00758901758CFC758A18D28C75A883D2A59A
:0E02DC0075080075093275A0FF12014280FB03
:10000E0030A10C30A20930A30630A4030200B57F44
:10001E00017E001202AC20A11AE51D451C70028063
:10002E0008E51D451C6074D2A6D2A0631DFF631C9B
:10003E00FF806820A20AE51D451C6004B2A0805B0B
:10004E0030A12B20A328D3E5099460E508648094A1
:10005E0080500B74032509F509E43508F508D3E53E
:10006E00099460E5086480948012020A802D30A104
:10007E002A20A427C3E5099405E5086480948040EE
:10008E000C74FB2509F50974FF3508F508C3E5095D
:10009E009405E5086480948012028030A10930A294
:0800AE000630A30320A4F42294
:10014200751A00751B0AE4F518F519E51D451C70B2
:100152001274162519F8E6F590850A807F327E0022
:100162001202ACE51D451C601BAF1974162FF8E690
:10017200F59074142FF8E6240AF8E6F5807F327EB3
:10018200001202AC0519E51970020518C39402E5C4
:10019200186480948040B4E51B151B7002151AD3B5
:0D01A200E51B9400E51A64809480509A22B9
:10020A00E514C39409501374032515F515D39409FD
:10021A00400874F62515F5150514E514C39409402C
:10022A0019751409E51594094003751509E515C3EF
:0B023A009407500674032515F51522EB
:10028000E515C39405400774FB2515F51522E51502
:10029000C394055016E515C39400400FE514700390
:0C02A000F5142274052515F5151514221F
:1002AC00D3EF9400EE6480948040147D0A7C00EDC2
:0F02BC001D70011CED4C70F7EF1F70E41E80E108
:0102CB002210
:03000300020245B1
:10024500C0E0C0F0C083C082C0D075D000C000C07F
:1002550001C002C003C004C005C006C00712000EDD
:10026500D007D006D005D004D003D002D001D000ED
:0B027500D0D0D082D083D0F0D0E03297
:03000B000201AF40
:1001AF00C0E0C0D075D000C000C28C758CFC758AC1
:1001BF0018D28C0519E51970020518C39509E508C1
:1001CF006480F8E5186480985004D2A68013D3E5B4
:1001DF00199509E5086480F8E5186480984002C213
:1001EF00A6C3E5199464E5186480948040067518D9
:0B01FF0000751900D000D0D0D0E03215
:1000C2000202CCE493A3F8E493A34003F68001F286
:1000D20008DFF48029E493A3F85407240CC8C3333F
:1000E200C4540F4420C8834004F456800146F6DF0E
:1000F200E4800B01020408102040809002EAE47EB2
:10010200019360BCA3FF543F30E509541FFEE49302
:10011200A360010ECF54C025E060A840B8E493A3C9
:10012200FAE493A3F8E493A3C8C582C8CAC583CAF4
:10013200F0A3C8C582C8CAC583CADFE9DEE780BEAC
:0103020000FA
:00000001FF
