:030000000200A358
:0C00A300787FE4F6D8FD75810702006C40
:10006C00D28A75A884D280D281D282D283D284D211
:0C007C0085D286D2877F0512000380F930
:0D000300EFD3940040077EE8DEFE1F80F37F
:0100100022CD
:100088007DFFE5A0F460117F05120003E5A0F46090
:0A00980007ADA0E5A0B4FFFBAF0523
:0100A200223B
:10001600EF2481603024C0602924E0602224F0604F
:100026001B24F8601424FC600D24FE60061470176F
:10003600B28022B28122B28222B28322B28422B25A
:080046008522B28622B2872256
:0300130002004E9A
:10004E00C0E0C0D075D000C005C006C00712008841
:0E005E00120016D007D006D005D0D0D0E03268
:00000001FF
