:030000000201B248
:0C01B200787FE4F6D8FD7581270201F982
:1003BD000A0F3F065B4F666D7D077F6F0608FEFDDA
:1003CD00FBF7EFDF061B020305090500010E000216
:0603DD00230000011900DD
:10044900D288758910758D0B758BDC75A889D28E4C
:0804590012023E12011C80F8A2
:1002F0007525FFE4F526F527E5A0F4602A12040A27
:10030000E5A0F4602285A025C3E5279414E52664C2
:100310008094805012E5A0F4600D0527E527700257
:0E032000052612040A80E1AF25EF3395E0FEBA
:01032E0022AC
:1003E400EF2409601924FC600E24FE6006147015C5
:1003F400020006630EFF22E50E600A02001EE50EEF
:06040400600312032F2229
:10011C00E50E70030201B175230075240AE4F52184
:10012C00F522E519B5220CE4B521087590FF7F0185
:10013C00FE8044E522640145216008E52264034504
:10014C0021701CAF2274082FF8E6F590741B2FF861
:10015C00E6240FF8E64480F5807F017E008018AF1E
:10016C002274082FF8E6F590741B2FF8E6240FF88C
:10017C00E6F5807F017E0012040E0522E522700256
:10018C000521C39406E521648094804095E52415EF
:10019C002470021523D3E5249400E5236480948015
:0601AC00400302012922BC
:10023E0075230075240AE4F521F522E522640145B3
:10024E00216008E522640345217016AF2274082F41
:10025E00F8E6F590741B2FF8E6240FF8E64480803C
:10026E0012AF2274082FF8E6F590741B2FF8E624CF
:10027E000FF8E6F58012040A0522E5227002052128
:10028E00C39406E5216480948040B0E52415247063
:10029E00021523D3E5249400E523648094805096C0
:0102AE00222D
:10039300E51B6003B4010F051CE51CC3940A401957
:1003A300E4F51C051B22E51BB4020E051CE51CD35A
:0A03B30094034005E4F51CF51B223D
:10042E00051EE51EC3940A4011E4F51E051DE51DCB
:0B043E0094064006E4F51D1203932213
:10000600E50E600F0519E519C39406400674FA2536
:0400160019F519229D
:10001E00E51914603314607B1470030200B514707C
:10002E00030200DE1470030200F2240560030201D5
:10003E001B741B2519F806741B2519F8E6C39403C7
:10004E00500302011BE4F622E51B6003B4011D748C
:10005E001B2519F806741B2519F8E6C3940A5003DC
:10006E0002011BE4F6741A2519F80622E51B640238
:10007E00600302011B741B2519F806741B2519F861
:10008E00E6D39403500302011BE4F6741A2519F803
:10009E00E4F622741B2519F806741B2519F8E6C31D
:1000AE0094064069E4F622741B2519F806741B2584
:1000BE0019F8E6C3940A4055E4F6741A2519F806A1
:1000CE00741A2519F8E6C394064042E4F602039327
:1000DE00741B2519F806741B2519F8E6C3940640FF
:1000EE002CE4F622741B2519F806741B2519F8E664
:1000FE00C3940A4018E4F6741A2519F806741A25E2
:0E010E0019F8E6C394064005E4F612042E220A
:10032F00741B2519F8E6FFC394014026EF940A5079
:10033F0021E519601B64016017E51964026011E57E
:10034F00196403600BE51964046005E519B405042D
:05035F001622E4F62265
:04040A007F017E00F0
:10040E00D3EF9400EE6480948040147DE87C03ED7D
:0F041E001D70011CED4C70F7EF1F70E41E80E1A4
:01042D0022AC
:030003000202AF47
:1002AF00C0E0C0F0C083C082C0D075D000C000C015
:1002BF0001C002C003C004C005C006C0071202F08F
:1002CF001203E4752000D007D006D005D004D00368
:1002DF00D002D001D000D0D0D082D083D0F0D0E0E7
:0102EF0032DC
:03001B0002036479
:10036400C0E0C0D075D000C000C28E758D0B758BF7
:10037400DCD28E051AE51AC39410400CE50E700801
:0F038400F51A75190512001ED000D0D0D0E03246
:1001BE00020449E493A3F8E493A34003F68001F20A
:1001CE0008DFF48029E493A3F85407240CC8C33342
:1001DE00C4540F4420C8834004F456800146F6DF11
:1001EE00E4800B01020408102040809003BDE47EE1
:1001FE00019360BCA3FF543F30E509541FFEE49306
:10020E00A360010ECF54C025E060A840B8E493A3CC
:10021E00FAE493A3F8E493A3C8C582C8CAC583CAF7
:10022E00F0A3C8C582C8CAC583CADFE9DEE780BEAF
:0103E3000019
:00000001FF
