:030000000200A556
:0C00A500787FE4F6D8FD75810D0200891B
:1000890075B804D288758901758C0B758ADCD28C98
:0C00990075A886D290E4F50AF50B80FEF5
:10006900D3EF9400EE6480948040147DE87C03ED26
:0F0079001D70011CED4C70F7EF1F70E41E80E14D
:010088002255
:03000B00020016DA
:10001600C0E0C0D0C28C758C0B758ADCD28C050909
:10002600E50970020508C39410E5086480948040D1
:0E00360008750800750900B290D0D0D0E032F5
:03001300020044A4
:10004400C0E0C0D075D000C004C005C006C007D24F
:10005400907FE87E03120069D007D006D005D00453
:05006400D0D0D0E03215
:00000001FF
