:0300000002016793
:0C016700787FE4F6D8FD75810B020003E0
:100003007580FFAFA07508008F09E5A0B4FE2775C2
:100013000A00750B64E50B150B7002150AE50B4519
:100023000A70F2E5A0B4FE066380FE6380FFE50973
:1000330064FE450860F8E5A0B4FD25750A00750B5C
:1000430064E50B150B7002150AE50B450A70F2E522
:10005300A0B4FD066380FD6380FFE5A064FD60FA44
:10006300E5A0B4FB25750A00750B64E50B150B7051
:1000730002150AE50B450A70F2E5A0B4FB0663809E
:10008300FB6380FFE5A064FB60FAE5A0B4F7257588
:100093000A00750B64E50B150B7002150AE50B4599
:1000A3000A70F2E5A0B4F7066380F76380FFE5A06A
:1000B30064F760FAE5A0B4EF25750A00750B64E5F3
:1000C3000B150B7002150AE50B450A70F2E5A0B497
:1000D300EF066380EF6380FFE5A064EF60FAE5A0BD
:1000E300B4DF25750A00750B64E50B150B7002155B
:1000F3000AE50B450A70F2E5A0B4DF066380DF630F
:1001030080FFE5A064DF60FAE5A0B4BF25750A00AF
:10011300750B64E50B150B7002150AE50B450A70A8
:10012300F2E5A0B4BF066380BF6380FFE5A064BFB0
:1001330060FAE5A0647F6003020006F50A750B64AC
:10014300E50B150B7002150AE50B450A70F2E5A0E5
:10015300B47F0663807F6380FFE5A0647F60030252
:04016300000680F51D
:00000001FF
