:03000000020003F8
:0C000300787FE4F6D8FD75812102004AE8
:100123000A0E3F065B4F666D7D077F6F0608FEFD77
:0C013300FBF7EFDF0618040508030906BF
:10008F00E4F520F521F51EF51FAF2174082FF8E6D2
:10009F00F590AE90EE2421602B24F0602724F460BD
:1000AF002324FE600714601C2407703374182FF884
:1000BF00E6240EF8E6F5806380800521E5217018AF
:1000CF000520801474182521F8E6240EF8E6F58033
:1000DF000521E521700205207F017E001201030535
:1000EF001FE51F7002051EC39406E51E64809480F1
:0400FF004097808C1A
:10010300D3EF9400EE6480948040147DE87C03ED8B
:0F0113001D70011CED4C70F7EF1F70E41E80E1B2
:0101220022BA
:10000F0002008FE493A3F8E493A34003F68001F278
:10001F0008DFF48029E493A3F85407240CC8C333F2
:10002F00C4540F4420C8834004F456800146F6DFC1
:10003F00E4800B0102040810204080900123E47E2D
:10004F00019360BCA3FF543F30E509541FFEE493B6
:10005F00A360010ECF54C025E060A840B8E493A37D
:10006F00FAE493A3F8E493A3C8C582C8CAC583CAA8
:10007F00F0A3C8C582C8CAC583CADFE9DEE780BE60
:01013F0000BF
:00000001FF
