:0300000002015E9C
:0C015E00787FE4F6D8FD758109020003EB
:100003007580FFE5A0B4FE25750800750964E50950
:10001300150970021508E509450870F2E5A0B4FE5C
:10002300066380FE6380FFE5A064FE60FAE5A0B48A
:10003300FD25750800750964E509150970021508A1
:10004300E509450870F2E5A0B4FD066380FD638011
:10005300FFE5A064FD60FAE5A0B4FB257508007513
:100063000964E509150970021508E509450870F2E8
:10007300E5A0B4FB066380FB6380FFE5A064FB603F
:10008300FAE5A0B4F725750800750964E5091509B3
:1000930070021508E509450870F2E5A0B4F7066398
:1000A30080F76380FFE5A064F760FAE5A0B4EF256D
:1000B300750800750964E509150970021508E50955
:1000C300450870F2E5A0B4EF066380EF6380FFE5B7
:1000D300A064EF60FAE5A0B4DF2575080075096434
:1000E300E509150970021508E509450870F2E5A050
:1000F300B4DF066380DF6380FFE5A064DF60FAE5B9
:10010300A0B4BF25750800750964E50915097002D7
:100113001508E509450870F2E5A0B4BF066380BF82
:100123006380FFE5A064BF60FAE5A0647F6003021B
:100133000006F508750964E509150970021508E557
:1001430009450870F2E5A0B47F0663807F6380FFF2
:0B015300E5A0647F600302000680F559
:00000001FF
