:0300000002013DBD
:0C013D00787FE4F6D8FD75811E02018475
:10027500011205011600011900011A0101180001FA
:1002850017320A083F065B4F666D7D077F6F0313C4
:03029500FFFEFD6C
:1001C900758901758CFC758A18D28C75A883E51917
:1001D90024FF92A0E51A24FF92A78514907408259C
:1001E90012F8E6F5807F0A12029F8515907408259A
:0C01F90016F8E6F5807F0A12029F80D203
:03000300020205F1
:10020500C0E0C0F0C083C082C0D075D000C000C0BF
:1002150001C002C003C004C005C006C00712000E1D
:10022500D007D006D005D004D003D002D001D0002D
:0B023500D0D0D082D083D0F0D0E032D7
:03000B00020240AE
:10024000C0E0C0D0C28C758CFC758A18D28C0518A1
:10025000E518C395175005751A01800AE518D3955E
:10026000174003751A00E518C3946440037518001D
:05027000D0D0D0E03207
:08029F007F0A7EC8DEFEDFFAD3
:0102A7002234
:06029800011B00011C0027
:10000E0020A1397F0512029FE51C14601904702986
:10001E00C2A9E4F519F51A85161D85121EF516F5F9
:10002E0012751C018013D2A9851D16851E12E51BA3
:10003E00B40103751901E4F51C30A1FD20A2307F37
:10004E000512029FE51C7024E51B14601204701C3F
:10005E00751901C374649517F517751B01800DE4AE
:10006E00F519C374649517F517E4F51B30A2FD203E
:10007E00A3597F0512029FE51C704DE51275F00A1B
:10008E00A47C002516FFEC35F0FEC3EF9461EE6400
:10009E00809480501374032516F516C3940A4008F5
:1000AE0074F62516F5160512E51B700BE517C394AD
:1000BE006150047403800DE51B600DE517D39403A6
:1000CE00400674FD2517F51730A3FD20A4607F05AB
:1000DE0012029FE51C7054E51275F00AA47C0025EF
:1000EE0016FFEC35F0FED3EF9405EE64809480405D
:1000FE001AE5169405400874FB2516F516800C7447
:10010E000A2516F51624FBF5161512E51B700BE5E0
:10011E0017D39405400474FB800DE51B600DE517A5
:0E012E00C3945F500674052517F51730A4FD25
:01013C0022A0
:100149000201C9E493A3F8E493A34003F68001F202
:1001590008DFF48029E493A3F85407240CC8C333B7
:10016900C4540F4420C8834004F456800146F6DF86
:10017900E4800B0102040810204080900275E47E9F
:10018900019360BCA3FF543F30E509541FFEE4937B
:10019900A360010ECF54C025E060A840B8E493A342
:1001A900FAE493A3F8E493A3C8C582C8CAC583CA6D
:1001B900F0A3C8C582C8CAC583CADFE9DEE780BE25
:01029E00005F
:00000001FF
