:03000000020003F8
:0C000300787FE4F6D8FD75810B02004AFE
:060125000108FE010900C3
:1000F00012008F1200C48508807F0512010CE509EB
:0C01000060EE7580FF7F0512010C80E4AA
:10010C00D3EF6480948040107EE8D3EE64809480BA
:08011C0040031E80F51F80E87E
:0101240022B8
:07008F007DFFE5A0F4602BEA
:100096007F0512010CE5A0F46021ADA0C3E50B9429
:1000A60014E50A648094805005E5A0B4FFEE7F084D
:0B00B60012010C050BE50B7002050A9F
:0200C100AF0589
:0100C300221A
:1000C400EF2405601824FE601014701FE50864FE18
:1000D4006019E508F4C313800F6309FF22E508647F
:0C00E4007F6008E508F425E0F4F5082230
:10000F000200F0E493A3F8E493A34003F68001F217
:10001F0008DFF48029E493A3F85407240CC8C333F2
:10002F00C4540F4420C8834004F456800146F6DFC1
:10003F00E4800B0102040810204080900125E47E2B
:10004F00019360BCA3FF543F30E509541FFEE493B6
:10005F00A360010ECF54C025E060A840B8E493A37D
:10006F00FAE493A3F8E493A3C8C582C8CAC583CAA8
:10007F00F0A3C8C582C8CAC583CADFE9DEE780BE60
:01012B0000D3
:00000001FF
