:03000000020003F8
:0C000300787FE4F6D8FD75812302004AE6
:1000FA000A0E3F065B4F666D7D077F6F0608FEFDA1
:0C010A00FBF7EFDF0618040508030906E8
:10008F00752000752101E4F522F523F51EF51F7487
:10009F00082523F8E6F590740E2521F8E6F580057E
:1000AF0021E521700205200523E523700205227F3B
:1000BF00017E001200DA051FE51F7002051EC394B2
:0B00CF0006E51E6480948040C680B5EA
:1000DA00D3EF9400EE6480948040147DE87C03EDB5
:0F00EA001D70011CED4C70F7EF1F70E41E80E1DC
:0100F90022E4
:10000F0002008FE493A3F8E493A34003F68001F278
:10001F0008DFF48029E493A3F85407240CC8C333F2
:10002F00C4540F4420C8834004F456800146F6DFC1
:10003F00E4800B01020408102040809000FAE47E57
:10004F00019360BCA3FF543F30E509541FFEE493B6
:10005F00A360010ECF54C025E060A840B8E493A37D
:10006F00FAE493A3F8E493A3C8C582C8CAC583CAA8
:10007F00F0A3C8C582C8CAC583CADFE9DEE780BE60
:0101160000E8
:00000001FF
