:03000000020003F8
:0C000300787FE4F6D8FD75810B02004AFE
:08013F0002080001020A0000A1
:1000F900D28875A8811200CE12008F8509907F05DC
:100109007E0012011FE50B450A60EAE4F5907F05C0
:06011900FE12011F80DF51
:10011F00D3EF9400EE6480948040147DE87C03ED6F
:0F012F001D70011CED4C70F7EF1F70E41E80E196
:01013E00229E
:1000CE00E4FBFAE5A0F4601E7F017E0012011FE53D
:1000DE00A0F46012AFA0AB07E5A0F460097F017E2B
:0A00EE000012011F80F2AE02AF0302
:0100F80022E5
:10008F00EE703BEF2405602324FE601814702FE5FB
:10009F0009640145086027E508A2E713F508E5099B
:1000AF0013F50922630BFF630AFF22E509648045FC
:0F00BF0008600BE50925E0F509E50833F508228F
:10000F000200F9E493A3F8E493A34003F68001F20E
:10001F0008DFF48029E493A3F85407240CC8C333F2
:10002F00C4540F4420C8834004F456800146F6DFC1
:10003F00E4800B010204081020408090013FE47E11
:10004F00019360BCA3FF543F30E509541FFEE493B6
:10005F00A360010ECF54C025E060A840B8E493A37D
:10006F00FAE493A3F8E493A3C8C582C8CAC583CAA8
:10007F00F0A3C8C582C8CAC583CADFE9DEE780BE60
:0101470000B7
:00000001FF
