:0300000002013DBD
:0C013D00787FE4F6D8FD75811D02018476
:1002750001130501160001180001190101170001FC
:1002850012320A083F065B4F666D7D077F6F0214C9
:02029500FEFD6C
:1001C900758901758CFC758A18D28C75A883E51818
:1001D90024FF92A0E51924FF92A78514907408259D
:1001E90013F8E6F5807F0A12029E8515907408259A
:0C01F90016F8E6F5807F0A12029E80D204
:03000300020205F1
:10020500C0E0C0F0C083C082C0D075D000C000C0BF
:1002150001C002C003C004C005C006C00712000E1D
:10022500D007D006D005D004D003D002D001D0002D
:0B023500D0D0D082D083D0F0D0E032D7
:03000B00020240AE
:10024000C0E0C0D0C28C758CFC758A18D28C0517A2
:10025000E517C395125005751901800AE517D39566
:10026000124003751900E517C39464400375170025
:05027000D0D0D0E03207
:08029E007F0A7EC8DEFEDFFAD4
:0102A6002235
:06029700011A00011B002A
:10000E0020A1397F0512029EE51B14601904702988
:10001E00C2A9E4F518F51985161C85131DF516F5FC
:10002E0013751B018013D2A9851C16851D13E51AA5
:10003E00B40103751801E4F51B30A1FD20A2307F39
:10004E000512029EE51B7024E51A14601204701C42
:10005E00751801C374649512F512751A01800DE4BA
:10006E00F518C374649512F512E4F51A30A2FD204A
:10007E00A3597F0512029EE51B704DE51375F00A1C
:10008E00A47C002516FFEC35F0FEC3EF9461EE6400
:10009E00809480501374032516F516C3940A4008F5
:1000AE0074F62516F5160513E51A700BE512C394B2
:1000BE006150047403800DE51A600DE512D39403AC
:1000CE00400674FD2512F51230A3FD20A4607F05B5
:1000DE0012029EE51B7054E51375F00AA47C0025F0
:1000EE0016FFEC35F0FED3EF9405EE64809480405D
:1000FE001AE5169405400874FB2516F516800C7447
:10010E000A2516F51624FBF5161513E51A700BE5E0
:10011E0012D39405400474FB800DE51A600DE512B0
:0E012E00C3945F500674052512F51230A4FD2F
:01013C0022A0
:100149000201C9E493A3F8E493A34003F68001F202
:1001590008DFF48029E493A3F85407240CC8C333B7
:10016900C4540F4420C8834004F456800146F6DF86
:10017900E4800B0102040810204080900275E47E9F
:10018900019360BCA3FF543F30E509541FFEE4937B
:10019900A360010ECF54C025E060A840B8E493A342
:1001A900FAE493A3F8E493A3C8C582C8CAC583CA6D
:1001B900F0A3C8C582C8CAC583CADFE9DEE780BE25
:01029D000060
:00000001FF
