:03000000020006F5
:0C000600787FE4F6D8FD75810902004DFA
:060148000108FE010900A0
:10011F00D28875A8818508807F0512013AE50960AC
:0B012F00F47580FF7F0512013A80EAA2
:0D013A00EFD3940040077EE8DEFE1F80F347
:010147002295
:100092007DFFE4FBFAE5A0F4602A7F0512013AE550
:1000A200A0F46020ADA0C3EB9414EA648094805065
:1000B20013E5A0F4600E7F0512013A0BEB70010A02
:0600C20014FB80E2AF0513
:0100C8002215
:1000C900EF2405601C24FE6010147023E508647F8A
:1000D900601DE508F425E080136309FF7F01020133
:1000E9003AE50864FE6008E508F4C313F4F508224C
:030003000200F9FF
:1000F900C0E0C0D075D000C002C003C005C006C0B2
:10010900071200921200C9D007D006D005D003D03B
:0601190002D0D0D0E0325C
:1000120002011FE493A3F8E493A34003F68001F2E4
:1000220008DFF48029E493A3F85407240CC8C333EF
:10003200C4540F4420C8834004F456800146F6DFBE
:10004200E4800B0102040810204080900148E47E05
:10005200019360BCA3FF543F30E509541FFEE493B3
:10006200A360010ECF54C025E060A840B8E493A37A
:10007200FAE493A3F8E493A3C8C582C8CAC583CAA5
:10008200F0A3C8C582C8CAC583CADFE9DEE780BE5D
:01014E0000B0
:00000001FF
