:03000000020003F8
:0C000300787FE4F6D8FD75811F02004AEA
:1000EE000A123F065B4F666D7D077F6F0A08FEFDA5
:0800FE00FBF7EFDF000000003A
:10008F00751E00751F01E4F51CF51D7408251DF87C
:10009F00E6F5907412251FF8E6F580051FE51F7031
:1000AF0002051E7F017E001200CE051DE51D7002A8
:0F00BF00051CC39406E51C6480948040CE80C16C
:1000CE00D3EF9400EE6480948040147DE87C03EDC1
:0F00DE001D70011CED4C70F7EF1F70E41E80E1E8
:0100ED0022F0
:10000F0002008FE493A3F8E493A34003F68001F278
:10001F0008DFF48029E493A3F85407240CC8C333F2
:10002F00C4540F4420C8834004F456800146F6DFC1
:10003F00E4800B01020408102040809000EEE47E63
:10004F00019360BCA3FF543F30E509541FFEE493B6
:10005F00A360010ECF54C025E060A840B8E493A37D
:10006F00FAE493A3F8E493A3C8C582C8CAC583CAA8
:10007F00F0A3C8C582C8CAC583CADFE9DEE780BE60
:0101060000F8
:00000001FF
