:0300000002019A60
:0C019A00787FE4F6D8FD7581260201E1B3
:100373000A0F3F065B4F666D7D077F6F0608FEFD24
:10038300FBF7EFDF061A020305090500010E000261
:0603930022000001190028
:0D041300D28875A88912022612010480F813
:100297007524FFE4F525F526E5A0F4602A1203C0CE
:1002A700E5A0F4602285A024C3E5269414E525641F
:1002B7008094805012E5A0F4600D0526E5267002B3
:0E02C70005251203C080E1AF24EF3395E0FE61
:0102D5002206
:10039A00EF2409601924FC600E24FE60061470150F
:1003AA000203FF630EFF22E50E600A020006E50E55
:0603BA006003120314228F
:10010400E50E700302019975220075230AE4F520B7
:10011400F521E519B5210CE4B520087590FF7F01A0
:10012400FE8044E521640145206008E5216403451F
:1001340020701CAF2174082FF8E6F590741A2FF87C
:10014400E6240FF8E64480F5807F017E008018AF36
:100154002174082FF8E6F590741A2FF8E6240FF8A6
:10016400E6F5807F017E001203C40521E5217002BB
:100174000520C39406E520648094804095E523150A
:100184002370021522D3E5239400E5226480948031
:06019400400302011122EC
:1002260075220075230AE4F520F521E521640145D0
:10023600206008E521640345207016AF2174082F5D
:10024600F8E6F590741A2FF8E6240FF8E644808055
:1002560012AF2174082FF8E6F590741A2FF8E624E9
:100266000FF8E6F5801203C00521E521700205208E
:10027600C39406E5206480948040B0E5231523707E
:10028600021522D3E5239400E522648094805096DB
:010296002245
:0403C0007F017E003B
:1003C400D3EF9400EE6480948040147DE87C03EDC8
:0F03D4001D70011CED4C70F7EF1F70E41E80E1EF
:0103E30022F7
:10034900E51A6003B4010F051BE51BC3940A4019A4
:10035900E4F51B051A22E51AB4020E051BE51BD3A9
:0A03690094034005E4F51BF51A2289
:1003E400051DE51DC3940A4011E4F51D051CE51C1B
:0B03F40094064003E4F51C12034922AC
:1003FF00E50E600F0519E519C39406400674FA253A
:04040F0019F51922A0
:10000600E51914603314607B14700302009D1470AC
:10001600030200C61470030200DA2405600302011D
:1000260003741A2519F806741A2519F8E6C39403F9
:100036005003020103E4F622E51A6003B4011D74BD
:100046001A2519F806741A2519F8E6C3940A5003F6
:10005600020103E4F674192519F80622E51A64026A
:100066006003020103741A2519F806741A2519F893
:10007600E6D394035003020103E4F674192519F834
:10008600E4F622741A2519F806741A2519F8E6C337
:1000960094064069E4F622741A2519F806741A259E
:1000A60019F8E6C3940A4055E4F674192519F806BA
:1000B60074192519F8E6C394064042E4F60203498A
:1000C600741A2519F806741A2519F8E6C394064019
:1000D6002CE4F622741A2519F806741A2519F8E67E
:1000E600C3940A4018E4F674192519F806741925FC
:0E00F60019F8E6C394064005E4F61203E4226E
:10031400741A2519F8E6FFC394014026EF940A5095
:1003240021E519601B64016017E51964026011E599
:10033400196403600BE51964046005E519B4050448
:050344001622E4F62280
:030003000202D620
:1002D600C0E0C0F0C083C082C0D075D000C000C0EE
:1002E60001C002C003C004C005C006C007120297C1
:1002F60012039AD007D006D005D004D003D002D07E
:0E03060001D000D0D0D082D083D0F0D0E03231
:1001A600020413E493A3F8E493A34003F68001F258
:1001B60008DFF48029E493A3F85407240CC8C3335A
:1001C600C4540F4420C8834004F456800146F6DF29
:1001D600E4800B0102040810204080900373E47E43
:1001E600019360BCA3FF543F30E509541FFEE4931E
:1001F600A360010ECF54C025E060A840B8E493A3E5
:10020600FAE493A3F8E493A3C8C582C8CAC583CA0F
:10021600F0A3C8C582C8CAC583CADFE9DEE780BEC7
:010399000063
:00000001FF
