:03000000020006F5
:0C000600787FE4F6D8FD75810D020091B2
:10009100D288758910758D0B758BDCD28E75A88908
:0900A100D2A0E4F50AF50B80FE83
:10007100D3EF9400EE6480948040147DE87C03ED1E
:0F0081001D70011CED4C70F7EF1F70E41E80E145
:01009000224D
:0300030002004CAC
:10004C00C0E0C0D075D000C004C005C006C007D247
:10005C00A07FE87E03120071D007D006D005D00433
:05006C00D0D0D0E0320D
:03001B0002001EC2
:10001E00C0E0C0D0C28E758D0B758BDCD28E0509FB
:10002E00E50970020508C39410E5086480948040C9
:0E003E0008750800750900B2A0D0D0D0E032DD
:00000001FF
