:03000000020003F8
:0C000300787FE4F6D8FD75810902004A00
:060104000108FE010900E4
:1000BF001200DB12008F8508807F051200F6E5091C
:0C00CF0060EE7580FF7F051200F680E4F3
:0D00F600EFD3940040077EE8DEFE1F80F38C
:0101030022D9
:1000DB007DFFE5A0F460117F051200F6E5A0F4604A
:0A00EB0007ADA0E5A0B4FFFBAF05D0
:0100F50022E8
:10008F00EF2405601C24FE6010147023E508647FC4
:10009F00601DE508F425E080136309FF7F0102006E
:1000AF00F6E50864FE6008E508F4C313F4F50822CA
:10000F000200BFE493A3F8E493A34003F68001F248
:10001F0008DFF48029E493A3F85407240CC8C333F2
:10002F00C4540F4420C8834004F456800146F6DFC1
:10003F00E4800B0102040810204080900104E47E4C
:10004F00019360BCA3FF543F30E509541FFEE493B6
:10005F00A360010ECF54C025E060A840B8E493A37D
:10006F00FAE493A3F8E493A3C8C582C8CAC583CAA8
:10007F00F0A3C8C582C8CAC583CADFE9DEE780BE60
:01010A0000F4
:00000001FF
